:10000000830100308A003928F60003088301D100FB
:100010000A08D2008A01A73083018100A2080319CF
:100020002F28A3080319A60A0319A70ABD248C1EAA
:1000300031281A08A000A10803192C2800308A00D2
:10004000210877202006031D2728A1032928043032
:10005000A1002008990031281A08AD003128A40A0F
:1000600019250B1152088A0051088300F60E760EEE
:1000700009002030840048304B2083010730D40031
:10008000F730D3004830840051304F208301102FC7
:1000900004068001840A0406031D48280034F00089
:1000A0005B208000840A040870060319003450287D
:1000B00083120313D300D41B6628541B6E285408E4
:1000C0008A005308D30A0319D40A820083135418F0
:1000D00083175308D30A84000008080082074D34B0
:1000E0004F344F3444344D344F3444344534820714
:0A00F000003444344F344F344D34D3
:0607FA0083018C1EFD2BA3
:100800001A080800FD23C2001024420808000C301A
:100810008301B500B400AE01AE0AB101B10A08000F
:100820008301C300831203130C1E122C430899008A
:100830000800F0000030711870070310F00D03106D
:10084000F10CF108031908001B2C8B1376301024CF
:1008500056301024323010242E301024363010241C
:100860008B1708008301C2000430C300FB30C400B2
:10087000C40B382CC30B362CC20B342C0800F401EB
:10088000F5010310F30CF20C031C4D2C7008F40757
:1008900071080318710AF5070310F00DF10D7208C5
:1008A000730403190034412C8B1372301024A801F7
:1008B000642C280883169B001C141A088312A900B4
:1008C00010240A303224A80A80302802031C592C34
:1008D000A8018B1708008301C2006430C300722C8A
:1008E0008C1A7A2C0B3083120313C400C40B762CA1
:1008F000C30B702C83120313C20B7F2C08008C1ABD
:1009000008006D2C83013A08C8003B08C9003C0868
:10091000CA008F2C851E0800AD08031D080033088F
:10092000F200F3013208F000F1013F2475082702BC
:10093000031D9C2C74082602031808008A2C013021
:100940008301A2068B1383169C18A32C7F309B0077
:100950008312220883169A0003108B1B03148B1337
:100960001C1555309D00AA309D009C141C110318C5
:100970008B17323032248B1708008301A308031928
:10098000D82C23084802031CC82C06168617051508
:1009900023084902031CCF2C86160514851523084D
:1009A0004A02031CD62C061785148615A3030800DB
:1009B000061286120613861305108510051185117F
:1009C0008611FF30A30008008B1377301024A80194
:1009D000102D0224A90083169C18EB2C83122808E2
:1009E00083169B008312290883169A0003108B1B21
:1009F00003148B131C1555309D00AA309D009C14C8
:100A00001C1103188B170530F10083122808C12729
:100A100070080319A9080A300319152D3224A80AF1
:100A20007D302802031CE92C0A303224A8018B17E0
:100A300008008301A3080319442D23084802031C5E
:100A4000222D0616230849020318861723084A0296
:100A50000318051523084B020318861623084C02B9
:100A60000318051423084D020318851523084E02A8
:100A70000318061723084F02031885142308500291
:100A800003188615A30308000612861206138613A0
:100A900005108510051185118611FF30A30008008F
:100AA0008301C201C20A3308F200F3013208F000E8
:100AB000F1013F247408C3007508C4007E2DC208EC
:100AC00003196A2D3A08C8003B08C9003C08CA004F
:100AD00035086E2DC801C901CA0134082607C500B2
:100AE00027080318270AC6000130C2064608270255
:100AF000031D7C2D45082602031C762D4408270281
:100B0000031D842D43082602031C851E0800AD0822
:100B1000031D08005F2D0530F10083120313280820
:100B20001924B600AA01A32D36082A0783169B00B4
:100B30001C1483122A083D3E8400831383161A086E
:100B400080008312AA0A05302A02031C942D3D0856
:100B5000B0004108B200AF01C12D0A30B300DB2D57
:100B60003E08B5003F08B400DB2D4008AE003F084A
:100B7000B100AE08031DBE2DAE01AE0AB301B30A2B
:100B8000DB2D3008013A0319AD2D033A0319BE2DB0
:100B9000013A0319AD2D073A0319BE2D013A031985
:100BA000AD2D033A0319B02D013A0319B52D643068
:100BB000A800AF01AF0A3008063A0319ED2D3E0830
:100BC000BA003008073A0319E92D3F08BB00400876
:100BD000EC2D3A08BB003A08BC00A80A19302802DC
:100BE0000318A8010800830148083A02C401031849
:100BF000C40A49083B02C3010318C30A4A083C025D
:100C0000C2010318C20A3208F200F3013308F000EF
:100C1000F1013F247408C6007508C700522E46082B
:100C2000B300C501C50A3308F000F10171082702BD
:100C3000031D1C2E70082602031C132EA601A701FB
:100C4000C408031D292E48083A020318302EC80391
:100C50002E2E3A0848020318302EC80AC501322E3B
:100C60003A08C800C308031D3B2E49083B0203187D
:100C7000422EC903402E3B0849020318422EC90ADE
:100C8000C501442E3B08C900C208031D4D2E4A0869
:100C90003C020318542ECA03522E3C084A02031881
:100CA000542ECA0AC501562E3C08CA00C5080319AD
:100CB0008C1A0800851E0800AD08031D08000F2EC1
:100CC0008301AB01C808031D682EB801B80A6B2E5A
:100CD000B801AB01AB0A48083A06031D712E3A036E
:100CE000C800B9013108B700851E0800B708031D08
:100CF0007C2EB108031D0800AD08031D0800AC01DF
:100D000003302C0203180D2F380BF52E2C08483E0B
:100D1000840083130008F0002C083A3E8400000889
:100D20007002031C851EFC2EAD08031DFC2E32082C
:100D3000F000F10171082702031DA02E70082602A1
:100D4000031C862EA601A701B901B90A2E08F000DE
:100D5000F1013A08F200F3012C08483E84008313A5
:100D60000008F202031CF3037308803AF4007108D0
:100D7000803A7402031DBE2E7008720283120313A0
:100D80002C08031CC92E483E840083132E088007BC
:100D9000862E483E840083133A088000862E851EE6
:100DA000FC2EAD08031DFC2E3208F000F101710885
:100DB0002702031DDD2E70082602031CF52EA60156
:100DC000A701B901B90A2C08483E840083132E08F4
:100DD00000022C08031CF12E483E84002E088002DD
:100DE000F52E483E8400831380012C08483E840081
:100DF00083138008031DCF2EB90803190B2FB901E7
:100E0000B7080319042FB703AB080319092F0130E2
:100E1000B806AB01AB0AAC0A802EAB01AB0A742E4C
:100E20008B01F030831603138500073083129F0077
:100E300083168600831285018601831681128B1624
:100E40008B17811586140615403099009030831257
:100E500098002430831698007F309B001C141A08D9
:100E60008312A2000130A205A208031D442FA50190
:100E7000093025020318442F2508483E84008313B7
:100E8000FF308000A50A382F0724A801A5010430EF
:100E9000A100851A502F323032249F24851E4E2FF8
:100EA000220B912F8B25A601A7015E2F8224712F83
:100EB000F325712F5025712F6026712F3008013ACC
:100EC0000319562F033A0319562F013A0319582FC5
:100ED000073A0319582F013A03195A2F023A0319F6
:100EE0005C2FAD08031D7E2FBC2FE4248D2F5424CE
:100EF0008D2F9F2474308C2F25248B2F2D08523A50
:100F00000319772F063A0319792F023A03197C2F18
:100F1000013A0319752F2D0810240430A100AD01EA
:100F2000BC2F8C1EB62F2508483E840083131A0858
:100F30008000A50A09302502031CB52FA101A501D7
:100F400000308A0021086E20F0002108483E84000D
:100F5000831300087006031DB52FA10A0830210273
:100F6000031CA02F743010249F24A401C830240235
:100F7000031CBC2FA501A401981C492F1812181698
:100F8000492FF000F4010310FD307107031CE82F16
:100F9000F301F0307105031DD02F0430F300F10E82
:100FA000F2010310F30AF10D031CD22FF10C7108AA
:100FB00070020318F000F20DF30BD62FF41FE22F8E
:100FC000F209F20A7208F41F0800F009F00A08009A
:100FD000F10C0318F12FF10C031CF0010310F00CBD
:100FE000031C03107008F200F001F00DDE2F003436
:100FF0000034003400340034003400340034003451
:02400E00421F4F
:10420000060009000900000001000400FF00000092
:104210000000010004000000FF0000000100040095
:1042200000000000FF00010004000000000000008A
:1042300002000500FF00000000001E000500000055
:10424000FF0000001E00050000000000FF001E002F
:1042500003001400140014000100050014001400F1
:104260001400140005005A005A005A0014000400FB
:104270008C008C008C00020004008C008C0000007C
:10428000010004008C000000000001000400000098
:104290000000000001000700FF0002001400010000
:1042A000000000000000000000000000000000000E
:1042B00000000000000000000000000000000000FE
:1042C00000000000000000000000000000000000EE
:1042D00000000000000000000000000000000000DE
:1042E00000000000000000000000000000000000CE
:1042F00000000000000000000000000000000000BE
:00000001FF
