:020000040000FA
:04000000000037289D
:08000800AC000308AD00BA30A2
:1000100081000B118B172B082002031C06122B08E2
:100020002102031C86122B082202031C06132B0834
:100030002302031C86132B082402031C05102B0823
:100040002502031C85102B082602031C05112B0812
:100050002702031C85112B082802031C8611AB0AFA
:10006000031981282D088300AC0E2C0E090083167D
:100070000313803085000230860081158112A03084
:100080008B0083120313810107309F0080308500AD
:100090000430860083164030990024309800831283
:1000A000903098001A081A081A087F30A0007F3094
:1000B000A1007F30A2007F30A3007F30A4007F30FA
:1000C000A5007F30A6007F30A7007F30A8008C1AE3
:1000D0006A2067287D20A0007D20A3007D20A60047
:1000E0007D20A1007D20A4007D20A7007D20A2000E
:1000F0007D20A5007D20A80008008C1E7D281A0800
:1001000008000000061686160617861705148514C3
:100110000515851586150800AA00F8309320000003
:0E012000AA0B8D280800FF3E031D932808003F
:02400E00623F0F
:00000001FF
